:1000000009308A00FD290000FF00030E8301A100D2
:100010000A08A0008A010408A2007708A300780853
:10002000A4007908A5007A08A600831383128B1E0A
:100030001B280B1936280B1E1F288B1839288C30CB
:100040008400801E25288C1A3C282208840023085E
:10005000F7002408F8002508F9002608FA0020080F
:100060008A00210E8300FF0E7F0E09008A110A12FA
:1000700056288A110A12E7288A110A121E298316A5
:100080005D08F8015C02031848285C08F700542852
:10009000F7010830DE00DC0DF70D5D08770203186C
:1000A000F700F80DDE0B4B2883120800D00A500829
:1000B0008316DC000930DD0083123F20F7080319A6
:1000C000D11550088316DC001330DD0083123F2069
:1000D000F7080319511550088316DC002630DD009F
:1000E00083123F20F7080319D11450088316DC004F
:1000F0004C30DD0083123F20F708031951145008DB
:100100004B3C031CD0010B118A110A1225288E309A
:10011000F70083165D08F8005C08F900FA01F8089A
:10012000031D9C287908F800F9010830F702F80847
:10013000031D9C28F701A4280310F81BA328F90D20
:10014000F80DF7039C28F8138312080083165D0846
:10015000E4006108E406E41FB22803110310DD1B6C
:100160000314E5285D08E4006008E5005C08E5028A
:100170000319C028E41FE5280308013A8300E52895
:100180006108E5005D08E5020319CC28E41FE528B5
:100190000308013A8300E5286208E5005E08E502ED
:1001A0000319D828E41FE5280308013A8300E5284D
:1001B0006308E5005F08E5020319E428E41FE52869
:1001C0000308013A8300E528031083120800D20ACD
:1001D0008316DD01831252088316DC008312872008
:1001E0007A088316DF007908DE007808DD007708DA
:1001F000DC00831243088316E3008312420883164F
:10020000E200831241088316E1008312400883163E
:10021000E0008312A620031C122983160611831204
:1002200006151629831606118312061152083C3C46
:10023000031CD2018B108A110A1225288C1E1E293C
:100240001A088316DC005C080A3C031D3129533070
:100250007107840083138001F101831251163D2937
:1002600083167108F10A533E840083135C088000F2
:1002700071081E3C0319F10383128C128A110A12B1
:10028000252803308316B802031C5029B830840097
:1002900083130008031950294E294E29800B4D293C
:1002A000831208008316861083128610023083168C
:1002B000B700F930B800831241218316B70B5929D2
:1002C00086140230B700F930B8008312412183163A
:1002D000B70B63298614831208008316B801380807
:1002E000073C031C97298610831286100230F70002
:1002F000F70B78297B29000003108316B70C03182D
:100300008529831286108729831683128614831603
:1003100086106330F700F70B8B298E298614023084
:10032000F700F70B912994290000B80A6F2983126E
:1003300008008316B7013708073C031CC029861044
:10034000831286100230F700F70BA429A7290000BA
:10035000831686140C30F700F70BAC29AF29000088
:10036000861483128618B6290310B729031483163E
:10037000B80CC730F700F70BBB29BE29B70A9B2979
:100380003808F800831208008316410803198A2AE6
:10039000CD00450803198A2ACD02031CD4297F30D9
:1003A000CD0703188A2ADA298130CD02031C8A2A54
:1003B00003198A2A4D08F700F801F901FA01CC0166
:1003C0004208CB00CB174308CA004408C9001930C3
:1003D000CD004808C9020318FD290130CA020318DC
:1003E000FD29CB020318FD29CC020318FD29CC0AF4
:1003F000CB0ACA0A4808C9072F2A4708CA020318A5
:10040000182A0130CB020318182ACC020318182A24
:10041000CC0ACB0A4708CA074808C907031C2F2A79
:10042000CA0A031D2F2ACB0A031D2F2ACC0A2F2A02
:1004300046088038CB0203182E2A0130CC0203185C
:100440002E2ACC0A46088038CB074708CA07031C67
:100450000C2ACB0A031D0C2ACC0A0C2A7A14CD0BC9
:10046000322A3D2A0310C90DCA0DCB0DCC0D031045
:10047000FA0DF90DF80DCE0DE9294E1C452A031091
:10048000F80CF90CFA0CCE0C482AF70303198A2A47
:10049000CE1B712A0310C90DCA0DCB0DCC0D480817
:1004A000C90203185D2A0130CA0203185D2ACB0273
:1004B00003185D2ACC02031C802A4708CA020318CD
:1004C000682A0130CB020318682ACC02031C802A58
:1004D00046088038CB020318712A0130CC02031C75
:1004E000802AFA0A031D802AF90A031D802AF80AC5
:1004F000031D802AF70A03198A2AF80CF90CFA0C52
:100500004208CD004608CD06CD1F882AF8178E2A4E
:10051000F8138E2AF701F801F901FA018312080095
:100520008316AE0183125221CC308316B70083129A
:100530006D2144308316B70083126D218316AE08F7
:10054000031DA82A8312992178088316AE009F2ADA
:1005500083125221CC308316B70083126D21BE3036
:100560008316B70083126D21992178088316AF0096
:100570008312992178088316B0003008B2002F0842
:10058000B1003208B8003108B7008E30F7003808E3
:10059000F8003708F900FA01B81FD32AF809F90959
:1005A000F90A0319F80AF808031DE02A7908F80087
:1005B000F9010830F702F808031DE02AF701E92ADB
:1005C0000310F81BE72AF90DF80DF703E02AB81F0E
:1005D000F8137A08BA007908B9007808B8007708E3
:1005E000B7003A08C4003908C3003808C200370809
:1005F000C100C801C701C6018330C5008312C421F0
:100600007A088316B6007908B5007808B400770830
:10061000B3003308F7003408F8003508F90036084D
:10062000FA0083120800B230840083130008031913
:10063000262B0630F800F701F70B1C2BF80B1B2BB1
:100640007B30F700F70B222B800B192B08000830AA
:10065000F80000008712A8122808831687000000FF
:10066000D10D83120712031C3B2B28162808831672
:1006700087003F2B8312281228088316870000006A
:100680008312A8162808831687008312871E462B1C
:10069000F80B292B00008712A81228088316870060
:1006A0000000831228162808831687000000000027
:1006B0008312A8162808831687008312871E5E2BD4
:1006C000F8010000071A78148712A8122808831668
:1006D00087008312071228122808831687008312C6
:1006E0000800281628088316870000008312A81621
:1006F0002808831687000000831207122812280892
:1007000083168700000083128712A8122808831618
:10071000870083122F088316D100831227238316A4
:100720004F08831230048316D000D1008312272390
:10073000281228088316870000008312A8162808AC
:10074000831687008312871EA32B0000A72B0000AF
:1007500028162808831687000000831208008316D5
:100760004C08CF008312712383164C08CD004D082E
:100770000438CE00CF0083127123BE2BBF2B0000A4
:1007800083164D08FB39CE00CF00831271235230FF
:10079000F700F70BC92BCC2B000008008316470885
:1007A000F039C900470EF700F030F7057708F03947
:1007B000CA0049084804CB00CC008312AF2383163B
:1007C0004A084804CB00CC008312AF2308008316EC
:1007D0003308C700C8018312CE23080001308316F6
:1007E000B3008312E72302308316B200831213236F
:1007F000080002308316B3008312E7230230831609
:10080000B20083121323080083164F080319752CB6
:10081000D70053080319752CD7070318162C7F30FF
:10082000D702031C752C0319752C1A2C8130D7079D
:100830000318752C5708F700F801F901FA01500860
:10084000DB00DB175108DA005208D9001830D70056
:10085000D801591C432C5608FA07031C352CF90AF9
:10086000031D352CF80A0319D8175508F907031C7E
:100870003C2CF80A0319D8175408D100D117510895
:10088000F8070318D817D80DF80CF90CFA0CDB0C84
:10089000DA0CD90C0310D70B282C0130F7070318FA
:1008A000752CF81B5A2CDB0DFA0DF90DF80DF7031A
:1008B0000319752CDB1F6B2CFA0A031D6B2CF90A2C
:1008C000031D6B2CF80A031D6B2CF80CF90CFA0CA9
:1008D000F70A0319752C5008D8005408D806D81FF9
:1008E000732CF817792CF813792CF701F801F9011A
:1008F000FA01831208008030831C812C8316C606FF
:1009000083128316CB01CC014208CA004608CA06EE
:10091000410803196F2DC900F70045080319782D08
:10092000C9020319142D031CD22C4608CF00CF177F
:100930004708CE004808CD00CC010310CF0CCE0CE8
:10094000CD0CCC0CC90B9C2CCA1FA92C4B148C2D84
:100950004B1049104B16C43084008313A12D4B1249
:10096000CA1BBC2C491CC72CCF0CCE0CCD0CCC0CFC
:10097000F70A0319872DC72CCF1BCA2C0310CC0DE7
:10098000CD0DCE0DCF0DF7030319872DBC2C4B17C2
:10099000342D4B134208CA00CA1FD02CCF17802D0C
:1009A000CF13802D4508C900F7004108C90242084D
:1009B000CF00CF174308CE004408CD00CC01031070
:1009C000CF0CCE0CCD0CCC0CC90BDE2CCA1FEB2CE3
:1009D000CB148C2DCB104910CB16C8308400831358
:1009E000A12DCB12CA1BFE2C491C092DCF0CCE0CFD
:1009F000CD0CCC0CF70A0319872D092DCF1B0C2D1C
:100A00000310CC0DCD0DCE0DCF0DF7030319872D9F
:100A1000FE2CCB17342DCB134608CA00CA1F122D4B
:100A2000CF17802DCF13802D4608CF00CF17470852
:100A3000CE004808CD00CA1F212DCF134B158C2D99
:100A40004B11CC014910C43084008313A12DCA1B63
:100A50004A2D4208CA00491C342DCF0CCE0CCD0CB7
:100A6000CC0CF70A0319872DCC1F452DCD0A031D89
:100A7000452DCE0A031D452DCF0A031D452DCF0C54
:100A8000CE0CCD0CF70A0319872D4B1BC92CCB1BA1
:100A90000B2D692D8030CF06CF1F522D8C2D46088F
:100AA000CA005F2D4208CA00CF08031D5F2DCE0883
:100AB000031D5F2DCD08031D5F2DF701802DCF1B7A
:100AC000692D0310CC0DCD0DCE0DCF0DF70B5F2D85
:100AD000872DCA1F6D2DCF17802DCF13802D450870
:100AE000F7004608CF004708CE004808CD00802D0B
:100AF0004108F7004208CF004308CE004408CD006B
:100B00004F08F8004E08F9004D08FA00BF2DF70114
:100B1000F801F901FA01BF2DCC01CD09CE09CF09A9
:100B2000CC09CC0A031D9A2DCD0A031D9A2DCE0A9D
:100B30000319CF0A4B18A82CCB18EA2C4B19202DDF
:100B40004F2D0008CD07031CAB2DCE0A031DAB2D86
:100B5000CF0A0319491484030008CE07031CB32DE0
:100B6000CF0A0319491484030008801F803ACF0775
:100B7000031849144B1AAF2CCB1AF12C272D8312D2
:100B800008008316B501B401B3017F30B200B9018A
:100B9000B801B701B6013A14BA103A11BC012E08D7
:100BA0002F04031DD82DF701F801F901FA01032FD5
:100BB0003C08BC0A2E07840083132F1883170008F3
:100BC000BB00BB080319BF2E3A1CF82D3B08203C84
:100BD0000319F82D3A103B082B3C031DF22DBA10D7
:100BE000B52EF82D3B082D3C031DF82DBA14B52E5B
:100BF0003A18022E3B082E3C031D022E3A19022EF3
:100C00003A15B52E3A18B32E3B082F3C0318B32ED5
:100C10003B08393C031CB32E3030BB023A1D6F2E0B
:100C20003508D2003408D1003308D0003208CF0094
:100C3000D601D5012030D4008230D30083120424A1
:100C40007A088316B5007908B4007808B3007708ED
:100C5000B2008312A7018B1BA7178B138316DD012C
:100C60003B08DC0083128720A71B8B177A088316AA
:100C7000C0007908BF007808BE007708BD004008B2
:100C8000C4003F08C3003E08C2003D08C10035084B
:100C9000C8003408C7003308C6003208C5008312F4
:100CA000C421831083163908C4003808C3003708EC
:100CB000C2003608C1007A08C8007908C700780861
:100CC000C6007708C50083127B247A088316B90012
:100CD0007908B8007808B7007708B600B22ED201BC
:100CE000D1012030D0008230CF003908D60038083A
:100CF000D5003708D4003608D300831204247A08BC
:100D00008316C0007908BF007808BE007708BD00D0
:100D10008312A7018B1BA7178B138316DD013B08DA
:100D2000DC0083128720A71B8B17831083164008D3
:100D3000C4003F08C3003E08C2003D08C1007A0855
:100D4000C8007908C7007808C6007708C500831274
:100D50007B247A088316B9007908B8007808B700B0
:100D60007708B600B52E3A1CBF2E3C08BC0A2E07E9
:100D7000840083132F1883170008BB00E12DBA1CD1
:100D8000DA2ED201D1018030D0007F30CF00390877
:100D9000D6003808D5003708D4003608D3008312AF
:100DA00004247A088316B9007908B8007808B700D7
:100DB0007708B600300831040319FB2EBC0803196C
:100DC000F02EBC03300884008313311883173C08CD
:100DD0002E078000840A2F0880000318800AFB2E4B
:100DE00030088400831331188317840A2F08800089
:100DF00084032E0880003608F7003708F80038080A
:100E0000F9003908FA0083128A150A12542B0830A7
:100E1000F8008316BC013B08F7007708BC06F70C06
:100E2000F80B0D2F83120C1E132FFE30831698051E
:100E30003C1818143B0883129900080083164F08C9
:100E4000B63CCF00FA015008D300D0170310D00CE5
:100E5000D10CD20CFA0CF90CF80CF70CCF0B262F96
:100E6000D31F3D2FF709F809F909FA09F70A031901
:100E7000F80A0319F90A0319FA0A831208008318F9
:100E8000442FD73084008313F701F801F901FA01E8
:100E90008316D701D801D901DA0156085504540444
:100EA00053040319832F2030DB000310CF0DD00D26
:100EB000D10DD20DD70DD80DD90DDA0D56085A0225
:100EC000031D6C2F55085902031D6C2F540858023E
:100ED000031D6C2F53085702031C7D2F5308D702A4
:100EE0005408031C540FD8025508031C550FD9028F
:100EF0005608031C560FDA020314F70DF80DF90D0E
:100F0000FA0DDB0B552F57088000840A5808800023
:100F1000840A59088000840A5A0880008312080055
:100F20008316C401440842078400831343188317BF
:100F300080080319B02F4408420784008313431824
:100F400083170008C5004508C6004608C7000130E1
:100F5000C8008312CE230130F8008316C40A922FF2
:100F6000831208003608840083133718831783160A
:100F70004F088000840A80018312B60A0319B70A59
:100F80000800B701B230B6008930840083163108FA
:100F9000C5003008C4002F08C3002E08C20002306C
:100FA000C6008A158312E9288A11DF308316CF0024
:100FB0008312B22743308316CF008312B2278316E1
:100FC000C301B230C2008312902708008B12511067
:0E0FD000D1105111D1118B168A150A12F12C75
:1010000004088316B3003208B500031924283108F8
:10101000D2003008D1002F08D0002E08CF00D60112
:10102000D5012030D4008230D3008A1183120424E9
:101030008A157A088316B1007908B0007808AF00E5
:101040007708AE00B50B07283108D2003008D10070
:101050002F08D0002E08CF008A1183121E278A1570
:101060007A088316B1007908B0007808AF007708D5
:10107000AE00B11F4828B303B316AE09AF09B009DB
:10108000B109AE0A0319AF0A0319B00A0319B10A6C
:101090003B30BA009A30B900CA30B800B7010A3004
:1010A000B50032080319B30A8314AE3084008313E9
:1010B0003108D2003008D1002F08D0002E08CF0010
:1010C0003A08D6003908D5003808D4003708D300CC
:1010D0008A1183123F278A157808F708031D87288D
:1010E0008316320A3502031D7728831287283308B6
:1010F00003198A280F393502031980280318CA28D2
:10110000B31BCA28331B8A282030C2288312203000
:101110008316B305B31E9C28B3123208031DB30314
:101120007708B3002D30BB008A11831207278A1578
:1011300083163308F700B30132083502031DAE28C9
:101140007708B3002E30BB008A11831207278A1557
:1011500083163308F7002030B30500303030B31E5B
:10116000C228B3123208031DB3037708B3002D3031
:10117000BB008A11831207278A1583163308F700EC
:10118000B3013030F7077708BB008A1183120727B5
:101190008A15831683103A08D2003908D10038081E
:1011A000D0003708CF00D601D501D4010A30D300D2
:1011B0008A1183123F278A157A088316BA007908A4
:1011C000B9007808B8007708B700B50B5428831227
:1011D000080004088316C7004608C90003190D2932
:1011E0004508D2004408D1004308D0004208CF008F
:1011F000D601D5012030D4008230D3008A11831269
:1012000004248A157A088316C5007908C400780872
:10121000C3007708C200C90BF0284508D200440873
:10122000D1004308D0004208CF008A1183121E2744
:101230008A157A088316C5007908C4007808C300A7
:101240007708C200C51F3129C703C716C209C309E1
:10125000C409C509C20A0319C30A0319C40A031938
:10126000C50A3B30CE009A30CD00CA30CC00CB014D
:101270000A30C90046080319C70A8314C230840023
:1012800083134508D2004408D1004308D000420827
:10129000CF004E08D6004D08D5004C08D4004B08AE
:1012A000D3008A1183123F278A157808F708031D97
:1012B00070298316460A4902031D6029831270298A
:1012C0004708031973290F394902031969290318BB
:1012D000B329C71BB329471B73292030AB298312BD
:1012E00020308316C705C71E8529C7124608031D6F
:1012F000C7037708C7002D30CF008A118312B227A9
:101300008A1583164708F700C70146084902031DDE
:1013100097297708C7002E30CF008A118312B22791
:101320008A1583164708F7002030C7050030303093
:10133000C71EAB29C7124608031DC7037708C7009D
:101340002D30CF008A118312B2278A1583164708E1
:10135000F700C7013030F7077708CF008A118312F2
:10136000B2278A15831683104E08D2004D08D1008B
:101370004C08D0004B08CF00D601D501D4010A306B
:10138000D3008A1183123F278A157A088316CE006C
:101390007908CD007808CC007708CB00C90B3D292F
:1013A00083128A110A12D42F8316B0014030B10083
:1013B0008312A7018B1BA7178B1383162F08DC0042
:1013C000831234088316DD008A1183123F208A15A8
:1013D000A71B8B1777088316AF00B0302F07840048
:1013E000831300082E078038B200B3008A118312DD
:1013F000E7238A158A150A12D42C03081F398300A3
:10140000813083169900E6309800D030831298001E
:10141000FF30A8000830B000B701B601BB01BA0127
:101420000C30B9008430B800BF01BE010C30BD00E3
:101430008430BC00C301C201C101C001C701C601A3
:10144000C501C401CB01CA01C901C801CF01CE0148
:10145000CD01CC01D0015110D1105111D111D201C7
:101460005112F10183161F149F141F159F1107308D
:101470009C0083138312A901AA0153308316A00094
:101480002E30A1005030A2002E30A3003A30A4002C
:101490002030A500A6015430A7002E30A80041300E
:1014A000A9002E30AA003A30AB002030AC00AD01CC
:1014B0001F109F141F159F151F1383121F139F13B7
:1014C00083169F1783121F1483160108C03907382B
:1014D000810083128B160B1683168C16C030831274
:1014E0008B048A1190228A157A08BB007908BA0009
:1014F0007808B9007708B80004308316AE00FA30D7
:10150000B2008A11831213238A158316AE0B7F2A29
:101510004E30AE001030AF000230B0002E08831203
:10152000AF0083162F088312B5008316300883128C
:10153000B4000830B20002308316B100FA30B200B5
:101540008A11831213238A158316B10B9E2A8312E4
:1015500030088316CF008A11831271238A15043054
:101560008316B100FA30B2008A11831213238A1550
:101570008316B10BB22A3030CC008A118312AF230C
:101580008A1504308316B2008A11831213238A1538
:1015900002308316B100F930B8008A11831241215C
:1015A0008A158316B10BCB2A3030CC008A118312F6
:1015B000AF238A1504308316B2008A1183121323D5
:1015C0008A1502308316B100F930B8008A118312EF
:1015D00041218A158316B10BE42A3030CC008A11E0
:1015E0008312AF238A1501308316B2008A11831249
:1015F00013238A1502308316B100F930B8008A111E
:10160000831241218A158316B10BFD2A2030CC00AC
:101610008A118312AF238A15320820388316B1004D
:10162000B3008A118312E7238A150730B100311500
:10163000310808388316B100B3008A118312E723FA
:101640008A158A11EE238A150230B3003308043854
:101650008316B100B3008A118312E7238A158A1119
:10166000F9238A15511C462B8A1190228A157A0873
:10167000BB007908BA007808B9007708B8000F30C5
:101680008316B2008A11831213238A15D11DA62B4B
:10169000511E5E2B51128316AF015330AE00B101C3
:1016A000B0018A118312C12D8A157A08BF0079080A
:1016B000BE007808BD007708BC00A62BD11DA62B64
:1016C00074308316BB008A11831207278A1589306C
:1016D00084003B088316B10083123A088316B000D9
:1016E000831239088316AF00831238088316AE00C0
:1016F0000230B200831200200A308316BB008A1128
:10170000831207278A1575308316BB008A1183124E
:1017100007278A158930840043088316B100831295
:1017200042088316B000831241088316AF0083126B
:1017300040088316AE000230B200831200200A3047
:101740008316BB008A11831207278A15511CAB2C04
:101750004B08CF004A08CE004908CD004808CC000D
:1017600083143F088316C40083123E088316C30007
:1017700083123D088316C20083123C088316C10001
:1017800083123B088316C80083123A088316C700E9
:10179000831239088316C600831238088316C500E1
:1017A0008A1183127B248A157A08CB007908CA0033
:1017B0007808C9007708C8004308C7004208C60077
:1017C0004108C5004008C400E4308316D200383018
:1017D000D1000E30D0007F30CF0083124B0883162B
:1017E000D60083124A088316D5008312490883164F
:1017F000D400831248088316D3008A11831204246C
:101800008A15831047088316C4008312460883167E
:10181000C300831245088316C2008312440883164E
:10182000C1007A08C8007908C7007808C6007708A0
:10183000C5008A1183127B248A157A088316B100A9
:101840007908B0007808AF007708AE005030D200B9
:101850007430D100D0017F30CF0083124F0883163F
:10186000D60083124E088316D50083124D088316C6
:10187000D40083124C088316D3008A1183120424E7
:101880008A15831483163108C4003008C3002F085A
:10189000C2002E08C1007A08C8007908C70078087D
:1018A000C6007708C5008A1183127B248A157A083E
:1018B000C3007908C2007808C1007708C000A701FA
:1018C0008B1BA7178B138316DF01DE017030DD0041
:1018D0008430DC00831243088316E300831242083D
:1018E0008316E200831241088316E1008312400848
:1018F0008316E0008A118312A6208A15A71B8B1776
:10190000031C882CC301C2017030C1008430C000A8
:10191000A7018B1BA7178B1343088316DF008312C5
:1019200042088316DE00831241088316DD0083120D
:1019300040088316DC00E301E201E101E0018A11C5
:101940008312A6208A15A71B8B17031CAB2CC3017F
:10195000C201C101C001D11CEF2C8A11F9238A15E3
:101960008A11EE238A158316C301A730C2008A119B
:10197000831290278A153B088316B10083123A0818
:101980008316B000831239088316AF00831238081B
:101990008316AE008A118312C1278A158316AE0101
:1019A0000130AF008312D4298316C301A030C200D6
:1019B0008A11831290278A153F088316B10083127B
:1019C0003E088316B00083123D088316AF008312D1
:1019D0003C088316AE008A118312C1278A158A112A
:0819E000E62F8A15322B63008B
:02400E00323F3F
:00000001FF
;PIC16F877A
;CRC=C53A  CREATED="23-Jul-18 14:36"
